{
	"data": {
		"bytecode": {
			"linkReferences": {},
			"object": "608060405234801561001057600080fd5b50610446806100206000396000f3fe608060405234801561001057600080fd5b50600436106100365760003560e01c806356ef86081461003b57806373d4a13a14610045575b600080fd5b610043610063565b005b61004d61011f565b60405161005a919061032e565b60405180910390f35b600080653ae054a5934390506000668e39079371b07490506000640fefaa1b15905060006701947e088f99e1c4905060006040518060800160405280600287816100a957fe5b048152602001600286816100b957fe5b048152602001600285816100c957fe5b048152602001600284816100d957fe5b04815250905085816040516020016100f2929190610350565b604051602081830303815290604052600090805190602001906101169291906101bd565b50505050505050565b60008054600181600116156101000203166002900480601f0160208091040260200160405190810160405280929190818152602001828054600181600116156101000203166002900480156101b55780601f1061018a576101008083540402835291602001916101b5565b820191906000526020600020905b81548152906001019060200180831161019857829003601f168201915b505050505081565b828054600181600116156101000203166002900490600052602060002090601f0160209004810192826101f3576000855561023a565b82601f1061020c57805160ff191683800117855561023a565b8280016001018555821561023a579182015b8281111561023957825182559160200191906001019061021e565b5b509050610247919061024b565b5090565b5b8082111561026457600081600090555060010161024c565b5090565b60006102748383610310565b60208301905092915050565b61028981610383565b61029381846103a6565b925061029e82610379565b8060005b838110156102cf5781516102b68782610268565b96506102c183610399565b9250506001810190506102a2565b505050505050565b60006102e28261038e565b6102ec81856103b1565b93506102fc8185602086016103cc565b610305816103ff565b840191505092915050565b610319816103c2565b82525050565b610328816103c2565b82525050565b6000602082019050818103600083015261034881846102d7565b905092915050565b600060a082019050610365600083018561031f565b6103726020830184610280565b9392505050565b6000819050919050565b600060049050919050565b600081519050919050565b6000602082019050919050565b600081905092915050565b600082825260208201905092915050565b6000819050919050565b60005b838110156103ea5780820151818401526020810190506103cf565b838111156103f9576000848401525b50505050565b6000601f19601f830116905091905056fea2646970667358221220c518d2d1a9f383d8a79b7e0a7d7a9f40ce10c38064a1f51c6e0794daa5f1527264736f6c63430007060033",
			"opcodes": "PUSH1 0x80 PUSH1 0x40 MSTORE CALLVALUE DUP1 ISZERO PUSH2 0x10 JUMPI PUSH1 0x0 DUP1 REVERT JUMPDEST POP PUSH2 0x446 DUP1 PUSH2 0x20 PUSH1 0x0 CODECOPY PUSH1 0x0 RETURN INVALID PUSH1 0x80 PUSH1 0x40 MSTORE CALLVALUE DUP1 ISZERO PUSH2 0x10 JUMPI PUSH1 0x0 DUP1 REVERT JUMPDEST POP PUSH1 0x4 CALLDATASIZE LT PUSH2 0x36 JUMPI PUSH1 0x0 CALLDATALOAD PUSH1 0xE0 SHR DUP1 PUSH4 0x56EF8608 EQ PUSH2 0x3B JUMPI DUP1 PUSH4 0x73D4A13A EQ PUSH2 0x45 JUMPI JUMPDEST PUSH1 0x0 DUP1 REVERT JUMPDEST PUSH2 0x43 PUSH2 0x63 JUMP JUMPDEST STOP JUMPDEST PUSH2 0x4D PUSH2 0x11F JUMP JUMPDEST PUSH1 0x40 MLOAD PUSH2 0x5A SWAP2 SWAP1 PUSH2 0x32E JUMP JUMPDEST PUSH1 0x40 MLOAD DUP1 SWAP2 SUB SWAP1 RETURN JUMPDEST PUSH1 0x0 DUP1 PUSH6 0x3AE054A59343 SWAP1 POP PUSH1 0x0 PUSH7 0x8E39079371B074 SWAP1 POP PUSH1 0x0 PUSH5 0xFEFAA1B15 SWAP1 POP PUSH1 0x0 PUSH8 0x1947E088F99E1C4 SWAP1 POP PUSH1 0x0 PUSH1 0x40 MLOAD DUP1 PUSH1 0x80 ADD PUSH1 0x40 MSTORE DUP1 PUSH1 0x2 DUP8 DUP2 PUSH2 0xA9 JUMPI INVALID JUMPDEST DIV DUP2 MSTORE PUSH1 0x20 ADD PUSH1 0x2 DUP7 DUP2 PUSH2 0xB9 JUMPI INVALID JUMPDEST DIV DUP2 MSTORE PUSH1 0x20 ADD PUSH1 0x2 DUP6 DUP2 PUSH2 0xC9 JUMPI INVALID JUMPDEST DIV DUP2 MSTORE PUSH1 0x20 ADD PUSH1 0x2 DUP5 DUP2 PUSH2 0xD9 JUMPI INVALID JUMPDEST DIV DUP2 MSTORE POP SWAP1 POP DUP6 DUP2 PUSH1 0x40 MLOAD PUSH1 0x20 ADD PUSH2 0xF2 SWAP3 SWAP2 SWAP1 PUSH2 0x350 JUMP JUMPDEST PUSH1 0x40 MLOAD PUSH1 0x20 DUP2 DUP4 SUB SUB DUP2 MSTORE SWAP1 PUSH1 0x40 MSTORE PUSH1 0x0 SWAP1 DUP1 MLOAD SWAP1 PUSH1 0x20 ADD SWAP1 PUSH2 0x116 SWAP3 SWAP2 SWAP1 PUSH2 0x1BD JUMP JUMPDEST POP POP POP POP POP POP POP JUMP JUMPDEST PUSH1 0x0 DUP1 SLOAD PUSH1 0x1 DUP2 PUSH1 0x1 AND ISZERO PUSH2 0x100 MUL SUB AND PUSH1 0x2 SWAP1 DIV DUP1 PUSH1 0x1F ADD PUSH1 0x20 DUP1 SWAP2 DIV MUL PUSH1 0x20 ADD PUSH1 0x40 MLOAD SWAP1 DUP2 ADD PUSH1 0x40 MSTORE DUP1 SWAP3 SWAP2 SWAP1 DUP2 DUP2 MSTORE PUSH1 0x20 ADD DUP3 DUP1 SLOAD PUSH1 0x1 DUP2 PUSH1 0x1 AND ISZERO PUSH2 0x100 MUL SUB AND PUSH1 0x2 SWAP1 DIV DUP1 ISZERO PUSH2 0x1B5 JUMPI DUP1 PUSH1 0x1F LT PUSH2 0x18A JUMPI PUSH2 0x100 DUP1 DUP4 SLOAD DIV MUL DUP4 MSTORE SWAP2 PUSH1 0x20 ADD SWAP2 PUSH2 0x1B5 JUMP JUMPDEST DUP3 ADD SWAP2 SWAP1 PUSH1 0x0 MSTORE PUSH1 0x20 PUSH1 0x0 KECCAK256 SWAP1 JUMPDEST DUP2 SLOAD DUP2 MSTORE SWAP1 PUSH1 0x1 ADD SWAP1 PUSH1 0x20 ADD DUP1 DUP4 GT PUSH2 0x198 JUMPI DUP3 SWAP1 SUB PUSH1 0x1F AND DUP3 ADD SWAP2 JUMPDEST POP POP POP POP POP DUP2 JUMP JUMPDEST DUP3 DUP1 SLOAD PUSH1 0x1 DUP2 PUSH1 0x1 AND ISZERO PUSH2 0x100 MUL SUB AND PUSH1 0x2 SWAP1 DIV SWAP1 PUSH1 0x0 MSTORE PUSH1 0x20 PUSH1 0x0 KECCAK256 SWAP1 PUSH1 0x1F ADD PUSH1 0x20 SWAP1 DIV DUP2 ADD SWAP3 DUP3 PUSH2 0x1F3 JUMPI PUSH1 0x0 DUP6 SSTORE PUSH2 0x23A JUMP JUMPDEST DUP3 PUSH1 0x1F LT PUSH2 0x20C JUMPI DUP1 MLOAD PUSH1 0xFF NOT AND DUP4 DUP1 ADD OR DUP6 SSTORE PUSH2 0x23A JUMP JUMPDEST DUP3 DUP1 ADD PUSH1 0x1 ADD DUP6 SSTORE DUP3 ISZERO PUSH2 0x23A JUMPI SWAP2 DUP3 ADD JUMPDEST DUP3 DUP2 GT ISZERO PUSH2 0x239 JUMPI DUP3 MLOAD DUP3 SSTORE SWAP2 PUSH1 0x20 ADD SWAP2 SWAP1 PUSH1 0x1 ADD SWAP1 PUSH2 0x21E JUMP JUMPDEST JUMPDEST POP SWAP1 POP PUSH2 0x247 SWAP2 SWAP1 PUSH2 0x24B JUMP JUMPDEST POP SWAP1 JUMP JUMPDEST JUMPDEST DUP1 DUP3 GT ISZERO PUSH2 0x264 JUMPI PUSH1 0x0 DUP2 PUSH1 0x0 SWAP1 SSTORE POP PUSH1 0x1 ADD PUSH2 0x24C JUMP JUMPDEST POP SWAP1 JUMP JUMPDEST PUSH1 0x0 PUSH2 0x274 DUP4 DUP4 PUSH2 0x310 JUMP JUMPDEST PUSH1 0x20 DUP4 ADD SWAP1 POP SWAP3 SWAP2 POP POP JUMP JUMPDEST PUSH2 0x289 DUP2 PUSH2 0x383 JUMP JUMPDEST PUSH2 0x293 DUP2 DUP5 PUSH2 0x3A6 JUMP JUMPDEST SWAP3 POP PUSH2 0x29E DUP3 PUSH2 0x379 JUMP JUMPDEST DUP1 PUSH1 0x0 JUMPDEST DUP4 DUP2 LT ISZERO PUSH2 0x2CF JUMPI DUP2 MLOAD PUSH2 0x2B6 DUP8 DUP3 PUSH2 0x268 JUMP JUMPDEST SWAP7 POP PUSH2 0x2C1 DUP4 PUSH2 0x399 JUMP JUMPDEST SWAP3 POP POP PUSH1 0x1 DUP2 ADD SWAP1 POP PUSH2 0x2A2 JUMP JUMPDEST POP POP POP POP POP POP JUMP JUMPDEST PUSH1 0x0 PUSH2 0x2E2 DUP3 PUSH2 0x38E JUMP JUMPDEST PUSH2 0x2EC DUP2 DUP6 PUSH2 0x3B1 JUMP JUMPDEST SWAP4 POP PUSH2 0x2FC DUP2 DUP6 PUSH1 0x20 DUP7 ADD PUSH2 0x3CC JUMP JUMPDEST PUSH2 0x305 DUP2 PUSH2 0x3FF JUMP JUMPDEST DUP5 ADD SWAP2 POP POP SWAP3 SWAP2 POP POP JUMP JUMPDEST PUSH2 0x319 DUP2 PUSH2 0x3C2 JUMP JUMPDEST DUP3 MSTORE POP POP JUMP JUMPDEST PUSH2 0x328 DUP2 PUSH2 0x3C2 JUMP JUMPDEST DUP3 MSTORE POP POP JUMP JUMPDEST PUSH1 0x0 PUSH1 0x20 DUP3 ADD SWAP1 POP DUP2 DUP2 SUB PUSH1 0x0 DUP4 ADD MSTORE PUSH2 0x348 DUP2 DUP5 PUSH2 0x2D7 JUMP JUMPDEST SWAP1 POP SWAP3 SWAP2 POP POP JUMP JUMPDEST PUSH1 0x0 PUSH1 0xA0 DUP3 ADD SWAP1 POP PUSH2 0x365 PUSH1 0x0 DUP4 ADD DUP6 PUSH2 0x31F JUMP JUMPDEST PUSH2 0x372 PUSH1 0x20 DUP4 ADD DUP5 PUSH2 0x280 JUMP JUMPDEST SWAP4 SWAP3 POP POP POP JUMP JUMPDEST PUSH1 0x0 DUP2 SWAP1 POP SWAP2 SWAP1 POP JUMP JUMPDEST PUSH1 0x0 PUSH1 0x4 SWAP1 POP SWAP2 SWAP1 POP JUMP JUMPDEST PUSH1 0x0 DUP2 MLOAD SWAP1 POP SWAP2 SWAP1 POP JUMP JUMPDEST PUSH1 0x0 PUSH1 0x20 DUP3 ADD SWAP1 POP SWAP2 SWAP1 POP JUMP JUMPDEST PUSH1 0x0 DUP2 SWAP1 POP SWAP3 SWAP2 POP POP JUMP JUMPDEST PUSH1 0x0 DUP3 DUP3 MSTORE PUSH1 0x20 DUP3 ADD SWAP1 POP SWAP3 SWAP2 POP POP JUMP JUMPDEST PUSH1 0x0 DUP2 SWAP1 POP SWAP2 SWAP1 POP JUMP JUMPDEST PUSH1 0x0 JUMPDEST DUP4 DUP2 LT ISZERO PUSH2 0x3EA JUMPI DUP1 DUP3 ADD MLOAD DUP2 DUP5 ADD MSTORE PUSH1 0x20 DUP2 ADD SWAP1 POP PUSH2 0x3CF JUMP JUMPDEST DUP4 DUP2 GT ISZERO PUSH2 0x3F9 JUMPI PUSH1 0x0 DUP5 DUP5 ADD MSTORE JUMPDEST POP POP POP POP JUMP JUMPDEST PUSH1 0x0 PUSH1 0x1F NOT PUSH1 0x1F DUP4 ADD AND SWAP1 POP SWAP2 SWAP1 POP JUMP INVALID LOG2 PUSH5 0x6970667358 0x22 SLT KECCAK256 0xC5 XOR 0xD2 0xD1 0xA9 RETURN DUP4 0xD8 0xA7 SWAP12 PUSH31 0xA7D7A9F40CE10C38064A1F51C6E0794DAA5F1527264736F6C634300070600 CALLER "
		},
		"gasEstimates": {
			"creation": {
				"codeDepositCost": "218800",
				"executionCost": "263",
				"totalCost": "219063"
			},
			"external": {
				"data()": "infinite",
				"eeee()": "infinite"
			}
		},
		"methodIdentifiers": {
			"data()": "73d4a13a",
			"eeee()": "56ef8608"
		}
	},
	"abi": [
		{
			"inputs": [],
			"name": "data",
			"outputs": [
				{
					"internalType": "bytes",
					"name": "",
					"type": "bytes"
				}
			],
			"stateMutability": "view",
			"type": "function"
		},
		{
			"inputs": [],
			"name": "eeee",
			"outputs": [],
			"stateMutability": "nonpayable",
			"type": "function"
		}
	]
}